:03000000020800F3
:0C080000787FE4F6D8FD75812F020847D0
:100B4D0002080000020C01F4020E0000021200FF68
:100B5D0002260001021000FF121400F900A400B0DB
:100B6D0000990092008200F800800098020A0001AE
:080B7E00F45FF5A07F647E0026
:100B8600D3EF9400EE6480948040147D6E7C00ED7B
:0F0B96001D70011CED4C70F7EF1F70E41E80E125
:010BA500222D
:100BF000D2808517907F0A7E00120B86C280D28138
:0D0C00008519907F0A7E00120B86C28122AA
:0E0C2000E511F4FFE510F4F5108F118FA022FE
:100B1800050FE50F7002050E14FFF8740108800236
:100B2800C333D8FCF45513F5A0C3E50F9408E50EBC
:100B38006480948040067E007F008004AE0EAF0F74
:050B48008E0E8F0F224C
:100BA600E4FBFAAF03A8077401088002C333D8FC3C
:100BB600F45513120B800BBB00010AEB64084A7054
:040BC600E275A0FF35
:010BCA002208
:100C0D00AFA0EF6006AFA0EFF47004E4F5A022638F
:030C1D00A0FF2213
:100AD8007B037A00900004E58264084583602DAFAB
:100AE80003A8077401088002C333D8FCF45513FF28
:100AF800AE82A8067401088002C333D8FC120B7EAC
:0F0B0800A3EB1B70011ABAFFCEBBFFCB75A0FF8A
:010B170022BB
:100A9200E4FBFA900007E582640345836034AF0308
:100AA200A8077401088002C333D8FCF45513FFAEC3
:100AB20082A8067401088002C333D8FC120B7EE5BB
:100AC200821582700215830BBB00010AEB64044A93
:050AD20070C475A0FFD7
:010AD70022FC
:10099600120A457C007D0812088C8C2C8D2D120ABB
:1009A600457C007D0812088C8C2E8D2F120A457C02
:1009B600007D0812088CAF2DA8077401088002C3B9
:1009C60033D8FCF45513FFAE2FA806740108800235
:1009D600C333D8FCF45FFFAE05A806740108800295
:0809E600C333D8FCF45FF5A057
:0109EE0022E6
:10091700D2A8D2AAD288D2AFD280C281C282C283E1
:10092700E52725E02412F808E6F590E52764014558
:1009370026700C120C207FF47E01120B8680ECE5EA
:100947002764024526700C120BA6AF0DAE0C120BD6
:100957008680ECE52764034526700C120AD8AF0D94
:10096700AE0C120B8680ECE52764044526700C124A
:100977000A92AF0DAE0C120B8680ECE52764054595
:0F0987002670A81209967F327E00120B8680EC34
:030003000209EF00
:1009EF00C0E0C0D075D000C000C004C005C006C0B4
:1009FF000720B23330B2FD120B8230B22AD3E52773
:100A0F009404E5266480948040067E007F0180096F
:100A1F00E5272401FFE43526FE8E268F27EF25E0FC
:100A2F002412F808E6F590D007D006D005D004D0F0
:060A3F0000D0D0D0E0322F
:03001300020BCB12
:100BCB00C0E0C0D075D000C004C005C006C007206F
:100BDB00B30630B3FD120B82D007D006D005D0047C
:050BEB00D0D0D0E03283
:10080C00020917E493A3F8E493A34003F68001F2E2
:10081C0008DFF48029E493A3F85407240CC8C333ED
:10082C00C4540F4420C8834004F456800146F6DFBC
:10083C00E4800B0102040810204080900B4DE47EF4
:10084C00019360BCA3FF543F30E509541FFEE493B1
:10085C00A360010ECF54C025E060A840B8E493A378
:10086C00FAE493A3F8E493A3C8C582C8CAC583CAA3
:10087C00F0A3C8C582C8CAC583CADFE9DEE780BE5B
:010B7D000077
:10088C00C2D5EC30E709B2D5E4C39DFDE49CFCEE87
:10089C0030E715B2D5E4C39FFFE49EFE1208C2C335
:1008AC00E49DFDE49CFC80031208C230D507C3E430
:0608BC009FFFE49EFE22F6
:100A4500AC28AD29AE2AAF2B7810EC4D4E4F700473
:100A55007CA57DA5C3EC13FCED13FDEE13FEEF1392
:100A6500FF5010EC64CCFCED644CFDEE644EFEEFE3
:100A750064CEFFD8DF8C288D298E2A8F2BEE547FEC
:0D0A8500FE228E288F2974A5F52AF52B225C
:1008C200BC000BBE0029EF8DF084FFADF022E4CC1A
:1008D200F875F008EF2FFFEE33FEEC33FCEE9DECE3
:1008E200984005FCEE9DFE0FD5F0E9E4CEFD22ED29
:1008F200F8F5F0EE8420D21CFEADF075F008EF2F73
:10090200FFED33FD4007985006D5F0F222C398FD63
:050912000FD5F0EA2200
:00000001FF
